:100000000C9434000C9446000C9446000C9446006A
:100010000C9446000C9446000C9446000C94460048
:100020000C9446000C9446000C9446000C94460038
:100030000C9446000C9446000C9446000C94460028
:100040000C9492000C9446000C9446000C944600CC
:100050000C9446000C9446000C9446000C94460008
:100060000C9446000C94460011241FBECFEFD8E03C
:10007000DEBFCDBF11E0A0E0B1E001C01D92A23013
:10008000B107E1F70E9448000C94B1000C94000005
:10009000CDB7DEB78CE790E02CE730E0F9012081A6
:1000A0002974FC0120838BE790E02BE730E0F90115
:1000B00020812770FC0120838EE690E02EE630E060
:1000C000F90120812170FC0120831092010110921E
:1000D000000184E290E024E230E0F9012081227006
:1000E000FC01208385E490E025E430E0F9012081E3
:1000F0002360FC01208380910001909101018538EB
:10010000FEE19F0770F085E290E025E230E0F90122
:10011000308122E02327FC012083109201011092FC
:100120000001E9CF1F920F9200905F000F921124FF
:100130008F939F93CF93DF93CDB7DEB7809100016C
:100140009091010101969093010180930001DF914C
:10015000CF919F918F910F9000925F000F901F9011
:060160001895F894FFCF92
:00000001FF
