:100000000C9434000C943E000C943E000C943E0082
:100010000C943E000C943E000C943E000C943E0068
:100020000C943E000C943E000C943E000C943E0058
:100030000C943E000C943E000C943E000C943E0048
:100040000C943E000C943E000C943E000C943E0038
:100050000C943E000C943E000C943E000C943E0028
:100060000C943E000C943E0011241FBECFEFD8E04C
:10007000DEBFCDBF0E9440000C9494000C940000A1
:100080008AB1806F8AB984B1816C84B985B1806C82
:1000900085B9289820E030E0822F2930310529F0F9
:1000A00091E0920F9295907F01C090E2782F729527
:1000B000707F2830310514F48E5F01C0885082951E
:1000C000807F4CE350E0EFE0F7E23197F1F700C0BA
:1000D00000009BB965B1616865B92E98EFE0F7E261
:1000E0003197F1F700C000007BB965B1616865B96F
:1000F00065B1616465B92F98EFE0F7E23197F1F7E8
:1001000000C000008BB965B1616865B965B1606C0C
:1001100065B9289841505109B1F62F5F3F4F2A30F9
:0C012000310509F0B9CFB6CFF894FFCF3D
:00000001FF
