:100000000C9434000C9446000C9446000C9446006A
:100010000C9446000C9446000C9446000C94460048
:100020000C9446000C9446000C9446000C94460038
:100030000C9446000C9446000C9446000C94460028
:100040000C9448000C9446000C9446000C94460016
:100050000C9446000C9446000C9446000C94460008
:100060000C9446000C94460011241FBECFEFD8E03C
:10007000DEBFCDBF11E0A0E0B1E001C01D92A13014
:10008000B107E1F70E9459000C94B0000C940000F5
:100090001F920F920FB60F9211248F93809100013F
:1000A0008F5F809300018F910F900FBE0F901F9074
:1000B000189580917C00856480937C0080917A0003
:1000C000876080937A001092C50089E18093C40014
:1000D0008091C20086628093C20080916E00816030
:1000E00080936E0010920001219A78942998809153
:1000F0007A00806880937A008091C1008860809344
:10010000C10085B5856085BDC2E08091000184365F
:10011000E0F385B18C2785B980917A008064809363
:100120007A0080917A0086FDFCCF80917800209142
:10013000790090E0922B875B91090E94A800909132
:10014000C00095FFFCCF8093C60010920001DDCF68
:10015000F999FECF92BD81BDF89A992780B508958F
:04016000F894FFCF41
:00000001FF
