:100000000C9499000C94D3000C94B6000C94B60098
:100010000C94B6000C94B6000C94B6000C94B60088
:100020000C94B6000C94B6000C94B6000C9402012B
:100030000C94B6000C94F7000C94B6000C94B60027
:100040000C94B6000C94B6000C9427010C94B600E6
:100050000C94B6000C940D010C94B6000C94B600F0
:100060000C94B6000C94B600D9DF12E073E0CDE03A
:1000700027E178E1C9E113E254E295E2D6E21FE319
:1000800058E399E3D2E30BE44CE485E4BEE4EFE407
:1000900028E559E59AE5CBE5FCE52CE665E696E62C
:1000A000C7E600E731E762E792E7C3E7F4E72DE848
:1000B0005EE88FE8C0E8E8E819E94AE983E9B4E9CD
:1000C000E5E915EA46EA6FEAA0EAD9EA0AEB3AEB73
:1000D0006BEB9CEBCDEBFEEB3FEC70ECA0ECD1ECD2
:1000E00002ED3BED74EDADEDDEED17EE48EE81EE89
:1000F000C2EEFBEE34EF6DEFA6EFDFEF20F061F024
:100100009AF0DBF01CF165F1AEF1F0F139F282F218
:10011000D3F225F376F3C8F329F483F4E4F44EF52F
:10012000C0F532F6BCF647F7EAF7A5F891F9D6FA2A
:1001300093FF11241FBECFEFD8E0DEBFCDBF11E08B
:10014000A0E0B1E0E2EEF3E002C005900D92A23033
:10015000B107D9F711E0A2E0B1E001C01D92A730CC
:10016000B107E1F70E9437010C94EF010C940000F5
:100170002091000130910101A901440F551F240F66
:10018000351F820F931F9695879596958795909327
:1001900001018093000108959091C00095FFFCCF6C
:1001A0008093C60008951F920F920FB60F921124EC
:1001B0008F939F93EF93FF93E0910601F0E0EE0F92
:1001C000FF1FE859FF4F859194919093850080938C
:1001D0008400EAE7F0E0808180648083FF91EF9102
:1001E0009F918F910F900FBE0F901F9018951F92A7
:1001F0000F920FB60F92112429980F900FBE0F90F7
:100200001F9018951F920F920FB60F921124299AE2
:100210000F900FBE0F901F9018951F920F920FB660
:100220000F9211242F938F939F93809178002091A8
:10023000790090E0922B90930401809303019F91A9
:100240008F912F910F900FBE0F901F9018951F92B6
:100250000F920FB60F9211248F938091C600809356
:1002600006018F910F900FBE0F901F9018958091EF
:100270007C00856480937C0080917A008F608093FD
:100280007A0080917A00806880937A001092C5008D
:1002900089E18093C4008091C10080688093C1008F
:1002A0008091C20086628093C2008091C100886103
:1002B0008093C10080916900826080936900E89A10
:1002C000219A8BE99FEF9093890080938800809119
:1002D0006F00836080936F008091810082608093C3
:1002E0008100789480917A00806480937A0085B54B
:1002F000856085BD1092060190E084E3E82E83E0DE
:10030000F82E04E810EFCDE8D2EFA89B32C0A89AEF
:100310009F5F9E3170F18091030190910401883BB1
:10032000910508F445C08091030190910401875B19
:1003300091099093040180930301809103019091AE
:1003400004018533934020F0F0920401E092030110
:1003500080910301909104010E94E70180930201C2
:10036000909102018091C00085FFFCCF9093C60060
:1003700090E080910501882341F280910601853546
:1003800069F0809106018A3AC1F0809181008D7FE9
:1003900080938100299810920501B7CFD0938900EE
:1003A000C093880080918100826080938100F3CFA8
:1003B0001092040110920301CBCF10938900009397
:1003C000880080918100826080938100E4CFF99958
:1003D000FECF92BD81BDF89A992780B50895F89413
:0203E000FFCF4D
:0203E2003503E1
:00000001FF
