:100000000C9499000C94D3000C94B6000C94B60098
:100010000C94B6000C94B6000C94B6000C94B60088
:100020000C94B6000C94B6000C94B6000C9402012B
:100030000C94B6000C94F7000C94B6000C94B60027
:100040000C94B6000C94B6000C9448010C94B600C5
:100050000C94B6000C940D010C94B6000C94B600F0
:100060000C94B6000C94B600D9DF12E073E0CDE03A
:1000700027E178E1C9E113E254E295E2D6E21FE319
:1000800058E399E3D2E30BE44CE485E4BEE4EFE407
:1000900028E559E59AE5CBE5FCE52CE665E696E62C
:1000A000C7E600E731E762E792E7C3E7F4E72DE848
:1000B0005EE88FE8C0E8E8E819E94AE983E9B4E9CD
:1000C000E5E915EA46EA6FEAA0EAD9EA0AEB3AEB73
:1000D0006BEB9CEBCDEBFEEB3FEC70ECA0ECD1ECD2
:1000E00002ED3BED74EDADEDDEED17EE48EE81EE89
:1000F000C2EEFBEE34EF6DEFA6EFDFEF20F061F024
:100100009AF0DBF01CF165F1AEF1F0F139F282F218
:10011000D3F225F376F3C8F329F483F4E4F44EF52F
:10012000C0F532F6BCF647F7EAF7A5F891F9D6FA2A
:1001300093FF11241FBECFEFD8E0DEBFCDBF11E08B
:10014000A0E0B1E0E6E1F4E002C005900D92A2303B
:10015000B107D9F721E0A2E0B1E001C01D92A830BB
:10016000B207E1F70E9458010C9409020C940000B8
:100170002091000130910101A901440F551F240F66
:10018000351F820F931F9695879596958795909327
:1001900001018093000108959091C00095FFFCCF6C
:1001A0008093C60008951F920F920FB60F921124EC
:1001B0008F939F93EF93FF93E0910701F0E0EE0F91
:1001C000FF1FE859FF4F859194919093850080938C
:1001D0008400EAE7F0E0808180648083FF91EF9102
:1001E0009F918F910F900FBE0F901F9018951F92A7
:1001F0000F920FB60F92112429980F900FBE0F90F7
:100200001F9018951F920F920FB60F921124299AE2
:100210000F900FBE0F901F9018951F920F920FB660
:100220000F9211242F933F934F935F938F939F933C
:10023000809178002091790090E0922B90930501B5
:100240008093040120910401309105018091000107
:1002500090910101AC01440F551F840F951F820F2F
:10026000931F969587959695879590930101809316
:10027000000190930301809302019F918F915F9100
:100280004F913F912F910F900FBE0F901F90189597
:100290001F920F920FB60F9211248F938091C60078
:1002A000809307018F910F900FBE0F901F901895AC
:1002B00080917C00856480937C0080917A008F60BF
:1002C00080937A0080917A00806880937A001092FF
:1002D000C50089E18093C4008091C100806880934B
:1002E000C1008091C20086628093C2008091C100EB
:1002F00088618093C1008091690082608093690069
:10030000E89A219A8BE99FEF909389008093880067
:1003100080916F00836080936F0080918100826084
:1003200080938100789480917A00806480937A0031
:1003300085B5856085BD10920701C4E3D3E08EE1E9
:10034000A89BFECFA89A8150D9F780910401909183
:100350000501883B910508F44FC0809104019091FC
:100360000501875B910990930501809304018091B9
:100370000401909105018533934020F0D09305014D
:10038000C09304018091020190910301883B910583
:1003900070F18091020190910301875B9109909324
:1003A0000301809302018091020190910301853342
:1003B000934020F0D0930301C09302018091040187
:1003C000909105010E9401029091C00095FFFCCF21
:1003D0008093C60080910201909103010E94010266
:1003E0009091C00095FFFCCF8093C600A8CF1092DB
:1003F000030110920201E2CF109205011092040154
:10040000C1CFF999FECF92BD81BDF89A992780B5E9
:060410000895F894FFCFEF
:020416003403AD
:00000001FF
